:100000000C942A000C9447000C9447000C94470071
:100010000C9447000C9447000C9447000C94470044
:100020000C9447000C9447000C9447000C94470034
:100030000C9447000C9447000C9447000C94470024
:100040000C9447000C9447000C9447000C94470014
:100050000C94470011241FBECFE5D4E0DEBFCDBF16
:1000600010E0A0E6B0E0E4E7F3E002C005900D92F6
:10007000A237B107D9F710E0A2E7B0E001C01D92A6
:10008000A437B107E1F70E9449000C94B8010C9421
:100090000000CF93DF938A98929A8B98939A80E08E
:1000A0000E94F10081E090E060E070E00E94C900F1
:1000B00080E690E00E941C0188E893E129E130E0AD
:1000C000F9013197F1F70197D9F781E090E060E00D
:1000D00070E00E94C900C0E5D3EC829908C0839B00
:1000E00006C08091720090917300019609C0829BB6
:1000F0000CC083990AC0809172009091730001979F
:1001000090937300809372000AC080917200909166
:10011000730097FFE2CF109273001092720080E09C
:1001200061E00E948801809172009091730063E009
:1001300070E00E942A01CE010197F1F7CECF84B37F
:10014000807F84BB959A969881E08A95F1F721E0AB
:10015000979A822F8A95F1F783B38295807F922FA9
:100160009A95F1F79798922F9A95F1F7979A922F7F
:100170009A95F1F793B3922F9A95F1F79798922F5A
:100180009A95F1F787FDE4CF959884B38F6084BB8F
:100190000895382F662311F4969801C0969A21E0AD
:1001A000822F8A95F1F7979A85B3932F92959F7036
:1001B000807F982B95BB822F8A95F1F79798822F95
:1001C0008A95F1F7979A85B33F70807F832B85BB23
:1001D000822F8A95F1F797982A95F1F70E949F0050
:1001E00008951F93182F8BE39BE20197F1F784B3D7
:1001F0008F6084BB8F9A8E9A8D9A85B3807F85BBE2
:1002000097989598969881E0982F9A95F1F7979AF4
:10021000A99A982F9A95F1F797988A95F1F70E94E5
:100220009F00812F8C6060E00E94C90088E260E03E
:100230000E94C9001F910895CF93DF93EC0104C081
:1002400061E00E94C900219688818823C9F7DF9167
:10025000CF910895EF92FF920F931F93DF93CF9367
:1002600000D000D00F92CDB7DEB79C018B01FE010C
:10027000319685E0DF011D928A95E9F7FE013596FA
:100280000DC0C9016AE070E00E9491018083C9013C
:100290006AE070E00E9491019B01319721153105C0
:1002A00081F7BFEF0F3F1B0779F420E030E0AE018C
:1002B0004F5F5F4F02C02F5F3F4FFA01E20FF31F06
:1002C00080818823C1F304C025E030E0201B310B7E
:1002D0007E010894E11CF11CE20EF31E890109C0A5
:1002E000F70181917F01805D61E00E94C9000F5F8D
:1002F0001F4F05301105A4F30F900F900F900F9032
:100300000F90CF91DF911F910F91FF90EF90089583
:10031000883230F461118064806860E00E94C90016
:10032000089597FB092E07260AD077FD04D00CD03C
:1003300006D000201AF4709561957F4F0895F6F766
:10034000909581959F4F0895AA1BBB1B51E107C053
:10035000AA1FBB1FA617B70710F0A61BB70B881F55
:10036000991F5A95A9F780959095BC01CD010895E4
:04037000F894FFCF2F
:10037400496E7472757570742070726F63657373EF
:02038400000077
:00000001FF
